{
  "contractName": "Bitstream",
  "abi": [
    {
      "inputs": [],
      "stateMutability": "nonpayable",
      "type": "constructor"
    },
    {
      "anonymous": false,
      "inputs": [
        {
          "indexed": true,
          "internalType": "address",
          "name": "owner",
          "type": "address"
        },
        {
          "indexed": true,
          "internalType": "address",
          "name": "spender",
          "type": "address"
        },
        {
          "indexed": false,
          "internalType": "uint256",
          "name": "value",
          "type": "uint256"
        }
      ],
      "name": "Approval",
      "type": "event"
    },
    {
      "anonymous": false,
      "inputs": [
        {
          "indexed": true,
          "internalType": "bytes32",
          "name": "role",
          "type": "bytes32"
        },
        {
          "indexed": true,
          "internalType": "bytes32",
          "name": "previousAdminRole",
          "type": "bytes32"
        },
        {
          "indexed": true,
          "internalType": "bytes32",
          "name": "newAdminRole",
          "type": "bytes32"
        }
      ],
      "name": "RoleAdminChanged",
      "type": "event"
    },
    {
      "anonymous": false,
      "inputs": [
        {
          "indexed": true,
          "internalType": "bytes32",
          "name": "role",
          "type": "bytes32"
        },
        {
          "indexed": true,
          "internalType": "address",
          "name": "account",
          "type": "address"
        },
        {
          "indexed": true,
          "internalType": "address",
          "name": "sender",
          "type": "address"
        }
      ],
      "name": "RoleGranted",
      "type": "event"
    },
    {
      "anonymous": false,
      "inputs": [
        {
          "indexed": true,
          "internalType": "bytes32",
          "name": "role",
          "type": "bytes32"
        },
        {
          "indexed": true,
          "internalType": "address",
          "name": "account",
          "type": "address"
        },
        {
          "indexed": true,
          "internalType": "address",
          "name": "sender",
          "type": "address"
        }
      ],
      "name": "RoleRevoked",
      "type": "event"
    },
    {
      "anonymous": false,
      "inputs": [
        {
          "indexed": true,
          "internalType": "address",
          "name": "from",
          "type": "address"
        },
        {
          "indexed": true,
          "internalType": "address",
          "name": "to",
          "type": "address"
        },
        {
          "indexed": false,
          "internalType": "uint256",
          "name": "value",
          "type": "uint256"
        }
      ],
      "name": "Transfer",
      "type": "event"
    },
    {
      "anonymous": false,
      "inputs": [
        {
          "indexed": false,
          "internalType": "address",
          "name": "from",
          "type": "address"
        },
        {
          "indexed": false,
          "internalType": "address",
          "name": "to",
          "type": "address"
        },
        {
          "indexed": false,
          "internalType": "uint256",
          "name": "value",
          "type": "uint256"
        },
        {
          "indexed": false,
          "internalType": "string",
          "name": "message",
          "type": "string"
        }
      ],
      "name": "donation",
      "type": "event"
    },
    {
      "anonymous": false,
      "inputs": [
        {
          "indexed": false,
          "internalType": "address",
          "name": "sender",
          "type": "address"
        }
      ],
      "name": "newAccount",
      "type": "event"
    },
    {
      "inputs": [],
      "name": "BLOCKS_BEFORE_HALVING",
      "outputs": [
        {
          "internalType": "uint256",
          "name": "",
          "type": "uint256"
        }
      ],
      "stateMutability": "view",
      "type": "function",
      "constant": true
    },
    {
      "inputs": [],
      "name": "CLAIM_TEAM_REWARDS_ROLE",
      "outputs": [
        {
          "internalType": "bytes32",
          "name": "",
          "type": "bytes32"
        }
      ],
      "stateMutability": "view",
      "type": "function",
      "constant": true
    },
    {
      "inputs": [],
      "name": "DEFAULT_ADMIN_ROLE",
      "outputs": [
        {
          "internalType": "bytes32",
          "name": "",
          "type": "bytes32"
        }
      ],
      "stateMutability": "view",
      "type": "function",
      "constant": true
    },
    {
      "inputs": [],
      "name": "MAX_HALVING",
      "outputs": [
        {
          "internalType": "uint256",
          "name": "",
          "type": "uint256"
        }
      ],
      "stateMutability": "view",
      "type": "function",
      "constant": true
    },
    {
      "inputs": [],
      "name": "OPENLOOT_BLOCK_TIME",
      "outputs": [
        {
          "internalType": "uint256",
          "name": "",
          "type": "uint256"
        }
      ],
      "stateMutability": "view",
      "type": "function",
      "constant": true
    },
    {
      "inputs": [],
      "name": "REWARD_UMBRAL",
      "outputs": [
        {
          "internalType": "uint256",
          "name": "",
          "type": "uint256"
        }
      ],
      "stateMutability": "view",
      "type": "function",
      "constant": true
    },
    {
      "inputs": [],
      "name": "STAKE_BLOCK_TIME",
      "outputs": [
        {
          "internalType": "uint256",
          "name": "",
          "type": "uint256"
        }
      ],
      "stateMutability": "view",
      "type": "function",
      "constant": true
    },
    {
      "inputs": [],
      "name": "TOKEN_DEPLOY_BLOCK",
      "outputs": [
        {
          "internalType": "uint256",
          "name": "",
          "type": "uint256"
        }
      ],
      "stateMutability": "view",
      "type": "function",
      "constant": true
    },
    {
      "inputs": [],
      "name": "_lastRandom",
      "outputs": [
        {
          "internalType": "uint256",
          "name": "",
          "type": "uint256"
        }
      ],
      "stateMutability": "view",
      "type": "function",
      "constant": true
    },
    {
      "inputs": [
        {
          "internalType": "address",
          "name": "owner",
          "type": "address"
        },
        {
          "internalType": "address",
          "name": "spender",
          "type": "address"
        }
      ],
      "name": "allowance",
      "outputs": [
        {
          "internalType": "uint256",
          "name": "",
          "type": "uint256"
        }
      ],
      "stateMutability": "view",
      "type": "function",
      "constant": true
    },
    {
      "inputs": [
        {
          "internalType": "address",
          "name": "spender",
          "type": "address"
        },
        {
          "internalType": "uint256",
          "name": "amount",
          "type": "uint256"
        }
      ],
      "name": "approve",
      "outputs": [
        {
          "internalType": "bool",
          "name": "",
          "type": "bool"
        }
      ],
      "stateMutability": "nonpayable",
      "type": "function"
    },
    {
      "inputs": [
        {
          "internalType": "address",
          "name": "account",
          "type": "address"
        }
      ],
      "name": "balanceOf",
      "outputs": [
        {
          "internalType": "uint256",
          "name": "",
          "type": "uint256"
        }
      ],
      "stateMutability": "view",
      "type": "function",
      "constant": true
    },
    {
      "inputs": [],
      "name": "decimals",
      "outputs": [
        {
          "internalType": "uint8",
          "name": "",
          "type": "uint8"
        }
      ],
      "stateMutability": "view",
      "type": "function",
      "constant": true
    },
    {
      "inputs": [
        {
          "internalType": "address",
          "name": "spender",
          "type": "address"
        },
        {
          "internalType": "uint256",
          "name": "subtractedValue",
          "type": "uint256"
        }
      ],
      "name": "decreaseAllowance",
      "outputs": [
        {
          "internalType": "bool",
          "name": "",
          "type": "bool"
        }
      ],
      "stateMutability": "nonpayable",
      "type": "function"
    },
    {
      "inputs": [
        {
          "internalType": "bytes32",
          "name": "role",
          "type": "bytes32"
        }
      ],
      "name": "getRoleAdmin",
      "outputs": [
        {
          "internalType": "bytes32",
          "name": "",
          "type": "bytes32"
        }
      ],
      "stateMutability": "view",
      "type": "function",
      "constant": true
    },
    {
      "inputs": [
        {
          "internalType": "bytes32",
          "name": "role",
          "type": "bytes32"
        },
        {
          "internalType": "uint256",
          "name": "index",
          "type": "uint256"
        }
      ],
      "name": "getRoleMember",
      "outputs": [
        {
          "internalType": "address",
          "name": "",
          "type": "address"
        }
      ],
      "stateMutability": "view",
      "type": "function",
      "constant": true
    },
    {
      "inputs": [
        {
          "internalType": "bytes32",
          "name": "role",
          "type": "bytes32"
        }
      ],
      "name": "getRoleMemberCount",
      "outputs": [
        {
          "internalType": "uint256",
          "name": "",
          "type": "uint256"
        }
      ],
      "stateMutability": "view",
      "type": "function",
      "constant": true
    },
    {
      "inputs": [
        {
          "internalType": "bytes32",
          "name": "role",
          "type": "bytes32"
        },
        {
          "internalType": "address",
          "name": "account",
          "type": "address"
        }
      ],
      "name": "grantRole",
      "outputs": [],
      "stateMutability": "nonpayable",
      "type": "function"
    },
    {
      "inputs": [
        {
          "internalType": "bytes32",
          "name": "role",
          "type": "bytes32"
        },
        {
          "internalType": "address",
          "name": "account",
          "type": "address"
        }
      ],
      "name": "hasRole",
      "outputs": [
        {
          "internalType": "bool",
          "name": "",
          "type": "bool"
        }
      ],
      "stateMutability": "view",
      "type": "function",
      "constant": true
    },
    {
      "inputs": [
        {
          "internalType": "address",
          "name": "spender",
          "type": "address"
        },
        {
          "internalType": "uint256",
          "name": "addedValue",
          "type": "uint256"
        }
      ],
      "name": "increaseAllowance",
      "outputs": [
        {
          "internalType": "bool",
          "name": "",
          "type": "bool"
        }
      ],
      "stateMutability": "nonpayable",
      "type": "function"
    },
    {
      "inputs": [],
      "name": "name",
      "outputs": [
        {
          "internalType": "string",
          "name": "",
          "type": "string"
        }
      ],
      "stateMutability": "view",
      "type": "function",
      "constant": true
    },
    {
      "inputs": [
        {
          "internalType": "bytes32",
          "name": "role",
          "type": "bytes32"
        },
        {
          "internalType": "address",
          "name": "account",
          "type": "address"
        }
      ],
      "name": "renounceRole",
      "outputs": [],
      "stateMutability": "nonpayable",
      "type": "function"
    },
    {
      "inputs": [
        {
          "internalType": "bytes32",
          "name": "role",
          "type": "bytes32"
        },
        {
          "internalType": "address",
          "name": "account",
          "type": "address"
        }
      ],
      "name": "revokeRole",
      "outputs": [],
      "stateMutability": "nonpayable",
      "type": "function"
    },
    {
      "inputs": [
        {
          "internalType": "bytes4",
          "name": "interfaceId",
          "type": "bytes4"
        }
      ],
      "name": "supportsInterface",
      "outputs": [
        {
          "internalType": "bool",
          "name": "",
          "type": "bool"
        }
      ],
      "stateMutability": "view",
      "type": "function",
      "constant": true
    },
    {
      "inputs": [],
      "name": "symbol",
      "outputs": [
        {
          "internalType": "string",
          "name": "",
          "type": "string"
        }
      ],
      "stateMutability": "view",
      "type": "function",
      "constant": true
    },
    {
      "inputs": [],
      "name": "totalSupply",
      "outputs": [
        {
          "internalType": "uint256",
          "name": "",
          "type": "uint256"
        }
      ],
      "stateMutability": "view",
      "type": "function",
      "constant": true
    },
    {
      "inputs": [
        {
          "internalType": "address",
          "name": "recipient",
          "type": "address"
        },
        {
          "internalType": "uint256",
          "name": "amount",
          "type": "uint256"
        }
      ],
      "name": "transfer",
      "outputs": [
        {
          "internalType": "bool",
          "name": "",
          "type": "bool"
        }
      ],
      "stateMutability": "nonpayable",
      "type": "function"
    },
    {
      "inputs": [
        {
          "internalType": "address",
          "name": "sender",
          "type": "address"
        },
        {
          "internalType": "address",
          "name": "recipient",
          "type": "address"
        },
        {
          "internalType": "uint256",
          "name": "amount",
          "type": "uint256"
        }
      ],
      "name": "transferFrom",
      "outputs": [
        {
          "internalType": "bool",
          "name": "",
          "type": "bool"
        }
      ],
      "stateMutability": "nonpayable",
      "type": "function"
    },
    {
      "inputs": [
        {
          "internalType": "uint256",
          "name": "_amount",
          "type": "uint256"
        }
      ],
      "name": "burn",
      "outputs": [],
      "stateMutability": "nonpayable",
      "type": "function"
    },
    {
      "inputs": [],
      "name": "setupAccount",
      "outputs": [],
      "stateMutability": "nonpayable",
      "type": "function"
    },
    {
      "inputs": [
        {
          "internalType": "address",
          "name": "_address",
          "type": "address"
        }
      ],
      "name": "isAccountSettled",
      "outputs": [
        {
          "internalType": "bool",
          "name": "_accountSettled",
          "type": "bool"
        }
      ],
      "stateMutability": "view",
      "type": "function",
      "constant": true
    },
    {
      "inputs": [
        {
          "internalType": "address",
          "name": "_address",
          "type": "address"
        }
      ],
      "name": "getStreamKey",
      "outputs": [
        {
          "internalType": "uint256",
          "name": "_streamKey",
          "type": "uint256"
        }
      ],
      "stateMutability": "view",
      "type": "function",
      "constant": true
    },
    {
      "inputs": [],
      "name": "changeStreamKey",
      "outputs": [],
      "stateMutability": "nonpayable",
      "type": "function"
    },
    {
      "inputs": [
        {
          "internalType": "address",
          "name": "_address",
          "type": "address"
        }
      ],
      "name": "levelOf",
      "outputs": [
        {
          "internalType": "uint256",
          "name": "_level",
          "type": "uint256"
        }
      ],
      "stateMutability": "view",
      "type": "function",
      "constant": true
    },
    {
      "inputs": [
        {
          "internalType": "address",
          "name": "_recipient",
          "type": "address"
        }
      ],
      "name": "openLoot",
      "outputs": [],
      "stateMutability": "nonpayable",
      "type": "function"
    },
    {
      "inputs": [
        {
          "internalType": "uint256",
          "name": "_amount",
          "type": "uint256"
        }
      ],
      "name": "stake",
      "outputs": [],
      "stateMutability": "nonpayable",
      "type": "function"
    },
    {
      "inputs": [
        {
          "internalType": "uint256",
          "name": "_amount",
          "type": "uint256"
        }
      ],
      "name": "unStake",
      "outputs": [],
      "stateMutability": "nonpayable",
      "type": "function"
    },
    {
      "inputs": [
        {
          "internalType": "address",
          "name": "_address",
          "type": "address"
        }
      ],
      "name": "stakedBalanceOf",
      "outputs": [
        {
          "internalType": "uint256",
          "name": "",
          "type": "uint256"
        }
      ],
      "stateMutability": "view",
      "type": "function",
      "constant": true
    },
    {
      "inputs": [],
      "name": "circulatingSupply",
      "outputs": [
        {
          "internalType": "uint256",
          "name": "",
          "type": "uint256"
        }
      ],
      "stateMutability": "view",
      "type": "function",
      "constant": true
    },
    {
      "inputs": [],
      "name": "halvingNumber",
      "outputs": [
        {
          "internalType": "uint256",
          "name": "",
          "type": "uint256"
        }
      ],
      "stateMutability": "view",
      "type": "function",
      "constant": true
    },
    {
      "inputs": [
        {
          "internalType": "address",
          "name": "_address",
          "type": "address"
        }
      ],
      "name": "stakerBlockedTime",
      "outputs": [
        {
          "internalType": "uint256",
          "name": "",
          "type": "uint256"
        }
      ],
      "stateMutability": "view",
      "type": "function",
      "constant": true
    },
    {
      "inputs": [
        {
          "internalType": "address",
          "name": "_address",
          "type": "address"
        }
      ],
      "name": "openLootBlockedTime",
      "outputs": [
        {
          "internalType": "uint256",
          "name": "",
          "type": "uint256"
        }
      ],
      "stateMutability": "view",
      "type": "function",
      "constant": true
    },
    {
      "inputs": [],
      "name": "claimAllBSMTeamRewards",
      "outputs": [],
      "stateMutability": "nonpayable",
      "type": "function"
    },
    {
      "inputs": [
        {
          "internalType": "uint256",
          "name": "_amount",
          "type": "uint256"
        }
      ],
      "name": "claimBsmTeamRewards",
      "outputs": [],
      "stateMutability": "nonpayable",
      "type": "function"
    },
    {
      "inputs": [],
      "name": "getBsmTeamRewards",
      "outputs": [
        {
          "internalType": "uint256",
          "name": "",
          "type": "uint256"
        }
      ],
      "stateMutability": "view",
      "type": "function",
      "constant": true
    },
    {
      "inputs": [],
      "name": "stakeTotalBalance",
      "outputs": [
        {
          "internalType": "uint256",
          "name": "",
          "type": "uint256"
        }
      ],
      "stateMutability": "view",
      "type": "function",
      "constant": true
    },
    {
      "inputs": [
        {
          "internalType": "address",
          "name": "_recipient",
          "type": "address"
        },
        {
          "internalType": "uint256",
          "name": "_amount",
          "type": "uint256"
        },
        {
          "internalType": "string",
          "name": "_message",
          "type": "string"
        }
      ],
      "name": "donate",
      "outputs": [],
      "stateMutability": "nonpayable",
      "type": "function"
    },
    {
      "inputs": [],
      "name": "_randomReward",
      "outputs": [
        {
          "internalType": "uint256",
          "name": "_reward",
          "type": "uint256"
        }
      ],
      "stateMutability": "nonpayable",
      "type": "function"
    },
    {
      "inputs": [
        {
          "internalType": "address",
          "name": "_address",
          "type": "address"
        },
        {
          "internalType": "string",
          "name": "_question",
          "type": "string"
        },
        {
          "internalType": "string[]",
          "name": "_answers",
          "type": "string[]"
        }
      ],
      "name": "_createPrediction",
      "outputs": [],
      "stateMutability": "nonpayable",
      "type": "function"
    },
    {
      "inputs": [
        {
          "internalType": "address",
          "name": "_address",
          "type": "address"
        }
      ],
      "name": "_addressToBytes32",
      "outputs": [
        {
          "internalType": "bytes32",
          "name": "_bytes32",
          "type": "bytes32"
        }
      ],
      "stateMutability": "pure",
      "type": "function",
      "constant": true
    }
  ],
  "bytecode": "0x60806040524260075560006008553480156200001a57600080fd5b506040518060400160405280600781526020017f4269747265616d000000000000000000000000000000000000000000000000008152506040518060400160405280600381526020017f42534d000000000000000000000000000000000000000000000000000000000081525081600390805190602001906200009f92919062001373565b508060049080519060200190620000b892919062001373565b505050620000df6000801b620000d36200026a60201b60201c565b6200027260201b60201c565b620000fb6000600f620002ba60201b6200179f1790919060201c565b5060006200010e620002f260201b60201c565b600a6200011c9190620018f6565b60016200012a919062001a33565b905080600e60008073ffffffffffffffffffffffffffffffffffffffff1673ffffffffffffffffffffffffffffffffffffffff1681526020019081526020016000208190555080601281905550600073ffd93649c60bdee0c83c8a8b94acc212e48cd74b90506000620001a2620002f260201b60201c565b600a620001b09190620018f6565b6019620001be919062001a33565b90506000735d39de1efdb0d5398b1a0b47175b479cb0a46b1690506000620001eb620002f260201b60201c565b600a620001f99190620018f6565b6101f462000208919062001a33565b90506200021c8484620002fb60201b60201c565b6200022d846200046060201b60201c565b6200023f8282620002fb60201b60201c565b6200025f8260058362000253919062001812565b620004ea60201b60201c565b505050505062001f1b565b600033905090565b620002898282620007a160201b620017cf1760201c565b620002b58160066000858152602001908152602001600020620002ba60201b6200179f1790919060201c565b505050565b6000620002ea836000018373ffffffffffffffffffffffffffffffffffffffff1660001b620007b760201b60201c565b905092915050565b60006012905090565b600073ffffffffffffffffffffffffffffffffffffffff168273ffffffffffffffffffffffffffffffffffffffff1614156200036e576040517f08c379a0000000000000000000000000000000000000000000000000000000008152600401620003659062001765565b60405180910390fd5b62000382600083836200083160201b60201c565b8060026000828254620003969190620017b5565b92505081905550806000808473ffffffffffffffffffffffffffffffffffffffff1673ffffffffffffffffffffffffffffffffffffffff1681526020019081526020016000206000828254620003ed9190620017b5565b925050819055508173ffffffffffffffffffffffffffffffffffffffff16600073ffffffffffffffffffffffffffffffffffffffff167fddf252ad1be2c89b69c2b068fc378daa952ba7f163c4a11628f55a4df523b3ef8360405162000454919062001787565b60405180910390a35050565b62000471816200083660201b60201c565b15620004b4576040517f08c379a0000000000000000000000000000000000000000000000000000000008152600401620004ab90620016ff565b60405180910390fd5b620004d6620004c9826200086260201b60201c565b826200027260201b60201c565b620004e7816200088e60201b60201c565b50565b6000620004fd836200090660201b60201c565b1462000540576040517f08c379a00000000000000000000000000000000000000000000000000000000081526004016200053790620016bb565b60405180910390fd5b62000550620002f260201b60201c565b600a6200055e9190620018f6565b60016200056c919062001a33565b811015620005b1576040517f08c379a0000000000000000000000000000000000000000000000000000000008152600401620005a89062001699565b60405180910390fd5b80620005c383620009ac60201b60201c565b101562000607576040517f08c379a0000000000000000000000000000000000000000000000000000000008152600401620005fe90620016dd565b60405180910390fd5b60006101008262000619919062001812565b90506000610100836200062d919062001812565b905080826200063d9190620017b5565b836200064a919062001a94565b92506200065e8483620009f460201b60201c565b8060136000828254620006729190620017b5565b9250508190555062000699843083866200068d9190620017b5565b62000bdc60201b60201c565b8260126000828254620006ad9190620017b5565b9250508190555082600e60008673ffffffffffffffffffffffffffffffffffffffff1673ffffffffffffffffffffffffffffffffffffffff1681526020019081526020016000206000828254620007059190620017b5565b925050819055506200072784600f62000e7260201b620017dd1790919060201c565b62000749576200074784600f620002ba60201b6200179f1790919060201c565b505b600042620007589190620017b5565b601160008673ffffffffffffffffffffffffffffffffffffffff1673ffffffffffffffffffffffffffffffffffffffff1681526020019081526020016000208190555050505050565b620007b3828262000eaa60201b60201c565b5050565b6000620007cb838362000f9c60201b60201c565b620008265782600001829080600181540180825580915050600190039060005260206000200160009091909190915055826000018054905083600101600084815260200190815260200160002081905550600190506200082b565b600090505b92915050565b505050565b6000806200085a6200084e846200086260201b60201c565b62000fbf60201b60201c565b119050919050565b600062000887620008798362000ff060201b60201c565b60006200114d60201b60201c565b9050919050565b6000620008a06200120b60201b60201c565b9050620008bd81600b6200124360201b6200180d1790919060201c565b5080600a60008473ffffffffffffffffffffffffffffffffffffffff1673ffffffffffffffffffffffffffffffffffffffff168152602001908152602001600020819055505050565b600042601160008473ffffffffffffffffffffffffffffffffffffffff1673ffffffffffffffffffffffffffffffffffffffff1681526020019081526020016000205410620009a25742601160008473ffffffffffffffffffffffffffffffffffffffff1673ffffffffffffffffffffffffffffffffffffffff168152602001908152602001600020546200099c919062001a94565b620009a5565b60005b9050919050565b60008060008373ffffffffffffffffffffffffffffffffffffffff1673ffffffffffffffffffffffffffffffffffffffff168152602001908152602001600020549050919050565b600073ffffffffffffffffffffffffffffffffffffffff168273ffffffffffffffffffffffffffffffffffffffff16141562000a67576040517f08c379a000000000000000000000000000000000000000000000000000000000815260040162000a5e9062001721565b60405180910390fd5b62000a7b826000836200083160201b60201c565b60008060008473ffffffffffffffffffffffffffffffffffffffff1673ffffffffffffffffffffffffffffffffffffffff1681526020019081526020016000205490508181101562000b04576040517f08c379a000000000000000000000000000000000000000000000000000000000815260040162000afb9062001655565b60405180910390fd5b818162000b12919062001a94565b6000808573ffffffffffffffffffffffffffffffffffffffff1673ffffffffffffffffffffffffffffffffffffffff16815260200190815260200160002081905550816002600082825462000b68919062001a94565b92505081905550600073ffffffffffffffffffffffffffffffffffffffff168373ffffffffffffffffffffffffffffffffffffffff167fddf252ad1be2c89b69c2b068fc378daa952ba7f163c4a11628f55a4df523b3ef8460405162000bcf919062001787565b60405180910390a3505050565b600073ffffffffffffffffffffffffffffffffffffffff168373ffffffffffffffffffffffffffffffffffffffff16141562000c4f576040517f08c379a000000000000000000000000000000000000000000000000000000000815260040162000c469062001743565b60405180910390fd5b600073ffffffffffffffffffffffffffffffffffffffff168273ffffffffffffffffffffffffffffffffffffffff16141562000cc2576040517f08c379a000000000000000000000000000000000000000000000000000000000815260040162000cb99062001633565b60405180910390fd5b62000cd58383836200083160201b60201c565b60008060008573ffffffffffffffffffffffffffffffffffffffff1673ffffffffffffffffffffffffffffffffffffffff1681526020019081526020016000205490508181101562000d5e576040517f08c379a000000000000000000000000000000000000000000000000000000000815260040162000d559062001677565b60405180910390fd5b818162000d6c919062001a94565b6000808673ffffffffffffffffffffffffffffffffffffffff1673ffffffffffffffffffffffffffffffffffffffff16815260200190815260200160002081905550816000808573ffffffffffffffffffffffffffffffffffffffff1673ffffffffffffffffffffffffffffffffffffffff168152602001908152602001600020600082825462000dfe9190620017b5565b925050819055508273ffffffffffffffffffffffffffffffffffffffff168473ffffffffffffffffffffffffffffffffffffffff167fddf252ad1be2c89b69c2b068fc378daa952ba7f163c4a11628f55a4df523b3ef8460405162000e64919062001787565b60405180910390a350505050565b600062000ea2836000018373ffffffffffffffffffffffffffffffffffffffff1660001b62000f9c60201b60201c565b905092915050565b62000ebc82826200126560201b60201c565b62000f985760016005600084815260200190815260200160002060000160008373ffffffffffffffffffffffffffffffffffffffff1673ffffffffffffffffffffffffffffffffffffffff16815260200190815260200160002060006101000a81548160ff02191690831515021790555062000f3d6200026a60201b60201c565b73ffffffffffffffffffffffffffffffffffffffff168173ffffffffffffffffffffffffffffffffffffffff16837f2f8788117e7eff1d82e926ec794901d17c78024a50270940304540a733656f0d60405160405180910390a45b5050565b600080836001016000848152602001908152602001600020541415905092915050565b600062000fe960066000848152602001908152602001600020620012d060201b620018271760201c565b9050919050565b6060602067ffffffffffffffff81111562001034577f4e487b7100000000000000000000000000000000000000000000000000000000600052604160045260246000fd5b6040519080825280601f01601f191660200182016040528015620010675781602001600182028036833780820191505090505b50905060005b6020811015620011475780601f62001086919062001a94565b600862001094919062001a33565b6002620010a29190620018a5565b8373ffffffffffffffffffffffffffffffffffffffff16620010c5919062001812565b60f81b82828151811062001102577f4e487b7100000000000000000000000000000000000000000000000000000000600052603260045260246000fd5b60200101907effffffffffffffffffffffffffffffffffffffffffffffffffffffffffffff1916908160001a90535080806200113e9062001b50565b9150506200106d565b50919050565b600080600090505b602081101562001204576008816200116e919062001a33565b60ff60f81b858386620011829190620017b5565b81518110620011ba577f4e487b7100000000000000000000000000000000000000000000000000000000600052603260045260246000fd5b602001015160f81c60f81b167effffffffffffffffffffffffffffffffffffffffffffffffffffffffffffff1916901c821791508080620011fb9062001b50565b91505062001155565b5092915050565b60005b6200121e620012ed60201b60201c565b90506200123b81600b6200134060201b6200183c1790919060201c565b6200120e5790565b60006200125d836000018360001b620007b760201b60201c565b905092915050565b60006005600084815260200190815260200160002060000160008373ffffffffffffffffffffffffffffffffffffffff1673ffffffffffffffffffffffffffffffffffffffff16815260200190815260200160002060009054906101000a900460ff16905092915050565b6000620012e6826000016200136260201b60201c565b9050919050565b600060086000815480929190620013049062001b50565b919050555042336008546040516020016200132293929190620015f0565b6040516020818303038152906040528051906020012060001c905090565b60006200135a836000018360001b62000f9c60201b60201c565b905092915050565b600081600001805490509050919050565b828054620013819062001b1a565b90600052602060002090601f016020900481019282620013a55760008555620013f1565b82601f10620013c057805160ff1916838001178555620013f1565b82800160010185558215620013f1579182015b82811115620013f0578251825591602001919060010190620013d3565b5b50905062001400919062001404565b5090565b5b808211156200141f57600081600090555060010162001405565b5090565b62001438620014328262001acf565b62001b9e565b82525050565b60006200144d602383620017a4565b91506200145a8262001c77565b604082019050919050565b600062001474602283620017a4565b9150620014818262001cc6565b604082019050919050565b60006200149b602683620017a4565b9150620014a88262001d15565b604082019050919050565b6000620014c2602283620017a4565b9150620014cf8262001d64565b604082019050919050565b6000620014e9601883620017a4565b9150620014f68262001db3565b602082019050919050565b600062001510602383620017a4565b91506200151d8262001ddc565b604082019050919050565b600062001537601783620017a4565b9150620015448262001e2b565b602082019050919050565b60006200155e602183620017a4565b91506200156b8262001e54565b604082019050919050565b600062001585602583620017a4565b9150620015928262001ea3565b604082019050919050565b6000620015ac601f83620017a4565b9150620015b98262001ef2565b602082019050919050565b620015cf8162001b03565b82525050565b620015ea620015e48262001b03565b62001bc6565b82525050565b6000620015fe8286620015d5565b60208201915062001610828562001423565b601482019150620016228284620015d5565b602082019150819050949350505050565b600060208201905081810360008301526200164e816200143e565b9050919050565b60006020820190508181036000830152620016708162001465565b9050919050565b6000602082019050818103600083015262001692816200148c565b9050919050565b60006020820190508181036000830152620016b481620014b3565b9050919050565b60006020820190508181036000830152620016d681620014da565b9050919050565b60006020820190508181036000830152620016f88162001501565b9050919050565b600060208201905081810360008301526200171a8162001528565b9050919050565b600060208201905081810360008301526200173c816200154f565b9050919050565b600060208201905081810360008301526200175e8162001576565b9050919050565b6000602082019050818103600083015262001780816200159d565b9050919050565b60006020820190506200179e6000830184620015c4565b92915050565b600082825260208201905092915050565b6000620017c28262001b03565b9150620017cf8362001b03565b9250827fffffffffffffffffffffffffffffffffffffffffffffffffffffffffffffffff0382111562001807576200180662001bd0565b5b828201905092915050565b60006200181f8262001b03565b91506200182c8362001b03565b9250826200183f576200183e62001bff565b5b828204905092915050565b6000808291508390505b60018511156200189c5780860481111562001874576200187362001bd0565b5b6001851615620018845780820291505b8081029050620018948562001c6a565b945062001854565b94509492505050565b6000620018b28262001b03565b9150620018bf8362001b03565b9250620018ee7fffffffffffffffffffffffffffffffffffffffffffffffffffffffffffffffff848462001947565b905092915050565b6000620019038262001b03565b9150620019108362001b0d565b92506200193f7fffffffffffffffffffffffffffffffffffffffffffffffffffffffffffffffff848462001947565b905092915050565b60008262001959576001905062001a2c565b8162001969576000905062001a2c565b81600181146200198257600281146200198d57620019c3565b600191505062001a2c565b60ff841115620019a257620019a162001bd0565b5b8360020a915084821115620019bc57620019bb62001bd0565b5b5062001a2c565b5060208310610133831016604e8410600b8410161715620019fd5782820a905083811115620019f757620019f662001bd0565b5b62001a2c565b62001a0c84848460016200184a565b9250905081840481111562001a265762001a2562001bd0565b5b81810290505b9392505050565b600062001a408262001b03565b915062001a4d8362001b03565b9250817fffffffffffffffffffffffffffffffffffffffffffffffffffffffffffffffff048311821515161562001a895762001a8862001bd0565b5b828202905092915050565b600062001aa18262001b03565b915062001aae8362001b03565b92508282101562001ac45762001ac362001bd0565b5b828203905092915050565b600062001adc8262001ae3565b9050919050565b600073ffffffffffffffffffffffffffffffffffffffff82169050919050565b6000819050919050565b600060ff82169050919050565b6000600282049050600182168062001b3357607f821691505b6020821081141562001b4a5762001b4962001c2e565b5b50919050565b600062001b5d8262001b03565b91507fffffffffffffffffffffffffffffffffffffffffffffffffffffffffffffffff82141562001b935762001b9262001bd0565b5b600182019050919050565b600062001bab8262001bb2565b9050919050565b600062001bbf8262001c5d565b9050919050565b6000819050919050565b7f4e487b7100000000000000000000000000000000000000000000000000000000600052601160045260246000fd5b7f4e487b7100000000000000000000000000000000000000000000000000000000600052601260045260246000fd5b7f4e487b7100000000000000000000000000000000000000000000000000000000600052602260045260246000fd5b60008160601b9050919050565b60008160011c9050919050565b7f45524332303a207472616e7366657220746f20746865207a65726f206164647260008201527f6573730000000000000000000000000000000000000000000000000000000000602082015250565b7f45524332303a206275726e20616d6f756e7420657863656564732062616c616e60008201527f6365000000000000000000000000000000000000000000000000000000000000602082015250565b7f45524332303a207472616e7366657220616d6f756e742065786365656473206260008201527f616c616e63650000000000000000000000000000000000000000000000000000602082015250565b7f4d696e696d756d20616d6d6f6f756e7420746f207374616b652069732031204260008201527f534d000000000000000000000000000000000000000000000000000000000000602082015250565b7f5374616b652062616c616e636520697320626c6f636b65640000000000000000600082015250565b7f4e6f7420656e6f756768742062616c616e6365206f6e2074686973206163636f60008201527f756e740000000000000000000000000000000000000000000000000000000000602082015250565b7f4163636f756e7420616c726561647920736574746c6564000000000000000000600082015250565b7f45524332303a206275726e2066726f6d20746865207a65726f2061646472657360008201527f7300000000000000000000000000000000000000000000000000000000000000602082015250565b7f45524332303a207472616e736665722066726f6d20746865207a65726f20616460008201527f6472657373000000000000000000000000000000000000000000000000000000602082015250565b7f45524332303a206d696e7420746f20746865207a65726f206164647265737300600082015250565b6151d88062001f2b6000396000f3fe608060405234801561001057600080fd5b50600436106102d65760003560e01c806375dd07ca11610182578063a217fddf116100e9578063d547741f116100a2578063dfaa47081161007c578063dfaa470814610933578063e214412214610963578063e535b0f914610981578063f23c671e1461099f576102d6565b8063d547741f146108b7578063daec5d99146108d3578063dd62ed3e14610903576102d6565b8063a217fddf146107bd578063a457c2d7146107db578063a694fc3a1461080b578063a9059cbb14610827578063ca15c87314610857578063ca17f66814610887576102d6565b80639010d07c1161013b5780639010d07c146106e557806391d14854146107155780639358928b1461074557806395d89b41146107635780639d4fba3214610781578063a1de1fd91461079f576102d6565b806375dd07ca146106375780637febd15e146106535780638432d46314610671578063843ebd00146106a15780638488893a146106bf5780638ba9b206146106db576102d6565b806327a9e7a61161024157806342ab0bf6116101fa5780635d3eea91116101d45780635d3eea91146105af5780636399beff146105cb5780636c1fe562146105e957806370a0823114610607576102d6565b806342ab0bf614610533578063485ccfa91461054f5780635c138c9d1461057f576102d6565b806327a9e7a6146104755780632f2ff15d14610491578063313ce567146104ad57806336568abe146104cb57806339509351146104e757806342966c6814610517576102d6565b8063193f810511610293578063193f8105146103c55780632192786f146103e357806322772734146103ed57806323b872dd1461040b578063248a9ca31461043b57806325819e561461046b576102d6565b806301ffc9a7146102db57806306dc7c8b1461030b57806306fdde0314610329578063095ea7b314610347578063167653911461037757806318160ddd146103a7575b600080fd5b6102f560048036038101906102f091906139d5565b6109bd565b6040516103029190613f51565b60405180910390f35b610313610a37565b6040516103209190614329565b60405180910390f35b610331610a3c565b60405161033e9190613f87565b60405180910390f35b610361600480360381019061035c9190613891565b610ace565b60405161036e9190613f51565b60405180910390f35b610391600480360381019061038c919061375e565b610aec565b60405161039e9190614329565b60405180910390f35b6103af610b35565b6040516103bc9190614329565b60405180910390f35b6103cd610b3f565b6040516103da9190614329565b60405180910390f35b6103eb610b62565b005b6103f5610bf6565b6040516104029190614329565b60405180910390f35b610425600480360381019061042091906137c3565b610bfb565b6040516104329190613f51565b60405180910390f35b61045560048036038101906104509190613934565b610cfc565b6040516104629190613f6c565b60405180910390f35b610473610d1c565b005b61048f600480360381019061048a9190613812565b610d7d565b005b6104ab60048036038101906104a6919061395d565b610d82565b005b6104b5610db6565b6040516104c29190614344565b60405180910390f35b6104e560048036038101906104e0919061395d565b610dbf565b005b61050160048036038101906104fc9190613891565b610df3565b60405161050e9190613f51565b60405180910390f35b610531600480360381019061052c91906139fe565b610e9f565b005b61054d600480360381019061054891906139fe565b610eb3565b005b6105696004803603810190610564919061375e565b610f4e565b6040516105769190614329565b60405180910390f35b6105996004803603810190610594919061375e565b61101f565b6040516105a69190614329565b60405180910390f35b6105c960048036038101906105c491906139fe565b6110a8565b005b6105d36110bc565b6040516105e09190613f6c565b60405180910390f35b6105f16110dc565b6040516105fe9190614329565b60405180910390f35b610621600480360381019061061c919061375e565b6110e2565b60405161062e9190614329565b60405180910390f35b610651600480360381019061064c919061375e565b61112a565b005b61065b611188565b6040516106689190614329565b60405180910390f35b61068b6004803603810190610686919061375e565b611192565b6040516106989190613f51565b60405180910390f35b6106a96111ae565b6040516106b69190614329565b60405180910390f35b6106d960048036038101906106d491906138cd565b6111b4565b005b6106e36111cc565b005b6106ff60048036038101906106fa9190613999565b611234565b60405161070c9190613eea565b60405180910390f35b61072f600480360381019061072a919061395d565b611263565b60405161073c9190613f51565b60405180910390f35b61074d6112ce565b60405161075a9190614329565b60405180910390f35b61076b6112f0565b6040516107789190613f87565b60405180910390f35b610789611382565b6040516107969190614329565b60405180910390f35b6107a7611389565b6040516107b49190614329565b60405180910390f35b6107c561138e565b6040516107d29190613f6c565b60405180910390f35b6107f560048036038101906107f09190613891565b611395565b6040516108029190613f51565b60405180910390f35b610825600480360381019061082091906139fe565b611489565b005b610841600480360381019061083c9190613891565b61149d565b60405161084e9190613f51565b60405180910390f35b610871600480360381019061086c9190613934565b6114bb565b60405161087e9190614329565b60405180910390f35b6108a1600480360381019061089c919061375e565b6114df565b6040516108ae9190614329565b60405180910390f35b6108d160048036038101906108cc919061395d565b611581565b005b6108ed60048036038101906108e8919061375e565b6115b5565b6040516108fa9190613f6c565b60405180910390f35b61091d60048036038101906109189190613787565b6115d1565b60405161092a9190614329565b60405180910390f35b61094d6004803603810190610948919061375e565b611658565b60405161095a9190614329565b60405180910390f35b61096b611712565b6040516109789190614329565b60405180910390f35b61098961171c565b6040516109969190614329565b60405180910390f35b6109a7611793565b6040516109b49190614329565b60405180910390f35b60007f5a05180f000000000000000000000000000000000000000000000000000000007bffffffffffffffffffffffffffffffffffffffffffffffffffffffff1916827bffffffffffffffffffffffffffffffffffffffffffffffffffffffff19161480610a305750610a2f82611856565b5b9050919050565b603c81565b606060038054610a4b906147c5565b80601f0160208091040260200160405190810160405280929190818152602001828054610a77906147c5565b8015610ac45780601f10610a9957610100808354040283529160200191610ac4565b820191906000526020600020905b815481529060010190602001808311610aa757829003601f168201915b5050505050905090565b6000610ae2610adb6118d0565b84846118d8565b6001905092915050565b6000600e60008373ffffffffffffffffffffffffffffffffffffffff1673ffffffffffffffffffffffffffffffffffffffff168152602001908152602001600020549050919050565b6000600254905090565b600062a082a060075442610b53919061469a565b610b5d9190614453565b905090565b610b766000801b610b716118d0565b611263565b80610baa5750610ba9780100000000000000000000000000000000000000000000000060001b610ba46118d0565b611263565b5b610be9576040517f08c379a0000000000000000000000000000000000000000000000000000000008152600401610be0906141c9565b60405180910390fd5b610bf4601354610eb3565b565b600081565b6000610c08848484611aa3565b6000600160008673ffffffffffffffffffffffffffffffffffffffff1673ffffffffffffffffffffffffffffffffffffffff1681526020019081526020016000206000610c536118d0565b73ffffffffffffffffffffffffffffffffffffffff1673ffffffffffffffffffffffffffffffffffffffff16815260200190815260200160002054905082811015610cd3576040517f08c379a0000000000000000000000000000000000000000000000000000000008152600401610cca90614189565b60405180910390fd5b610cf085610cdf6118d0565b8584610ceb919061469a565b6118d8565b60019150509392505050565b600060056000838152602001908152602001600020600101549050919050565b610d2c610d276118d0565b611192565b610d6b576040517f08c379a0000000000000000000000000000000000000000000000000000000008152600401610d6290614029565b60405180910390fd5b610d7b610d766118d0565b611d22565b565b505050565b610d8c8282611d8b565b610db1816006600085815260200190815260200160002061179f90919063ffffffff16565b505050565b60006012905090565b610dc98282611df1565b610dee8160066000858152602001908152602001600020611e7490919063ffffffff16565b505050565b6000610e95610e006118d0565b848460016000610e0e6118d0565b73ffffffffffffffffffffffffffffffffffffffff1673ffffffffffffffffffffffffffffffffffffffff16815260200190815260200160002060008873ffffffffffffffffffffffffffffffffffffffff1673ffffffffffffffffffffffffffffffffffffffff16815260200190815260200160002054610e9091906143fd565b6118d8565b6001905092915050565b610eb0610eaa6118d0565b82611ea4565b50565b610ec76000801b610ec26118d0565b611263565b80610efb5750610efa780100000000000000000000000000000000000000000000000060001b610ef56118d0565b611263565b5b610f3a576040517f08c379a0000000000000000000000000000000000000000000000000000000008152600401610f31906141c9565b60405180910390fd5b610f4b610f456118d0565b82612078565b50565b600081610f5a81611192565b610f99576040517f08c379a0000000000000000000000000000000000000000000000000000000008152600401610f9090614029565b60405180910390fd5b8273ffffffffffffffffffffffffffffffffffffffff16610fb86118d0565b73ffffffffffffffffffffffffffffffffffffffff161461100e576040517f08c379a0000000000000000000000000000000000000000000000000000000008152600401611005906141a9565b60405180910390fd5b61101783612121565b915050919050565b60008061102b836110e2565b90505b600181111561105957818061104290614828565b9250506002816110529190614453565b905061102e565b611061610b3f565b8261106c91906143fd565b9150603c821161107f57600091506110a2565b605c82111561109157602091506110a1565b603c8261109e919061469a565b91505b5b50919050565b6110b96110b36118d0565b8261216a565b50565b780100000000000000000000000000000000000000000000000060001b81565b60095481565b60008060008373ffffffffffffffffffffffffffffffffffffffff1673ffffffffffffffffffffffffffffffffffffffff168152602001908152602001600020549050919050565b8061113481611192565b611173576040517f08c379a000000000000000000000000000000000000000000000000000000000815260040161116a90614029565b60405180910390fd5b61118461117e6118d0565b83612427565b5050565b6000601354905090565b6000806111a66111a1846115b5565b6114bb565b119050919050565b60075481565b6111c76111bf6118d0565b8484846126c4565b505050565b6111dc6111d76118d0565b61288b565b6111f46111e76118d0565b6111ef61171c565b6128f2565b7f031524296d4ee0e5e0775541c16ebd221883b0904398de45389722768337ae4561121d6118d0565b60405161122a9190613eea565b60405180910390a1565b600061125b8260066000868152602001908152602001600020612a4690919063ffffffff16565b905092915050565b60006005600084815260200190815260200160002060000160008373ffffffffffffffffffffffffffffffffffffffff1673ffffffffffffffffffffffffffffffffffffffff16815260200190815260200160002060009054906101000a900460ff16905092915050565b60006112d9306110e2565b6112e1610b35565b6112eb919061469a565b905090565b6060600480546112ff906147c5565b80601f016020809104026020016040519081016040528092919081815260200182805461132b906147c5565b80156113785780601f1061134d57610100808354040283529160200191611378565b820191906000526020600020905b81548152906001019060200180831161135b57829003601f168201915b5050505050905090565b62a082a081565b600081565b6000801b81565b600080600160006113a46118d0565b73ffffffffffffffffffffffffffffffffffffffff1673ffffffffffffffffffffffffffffffffffffffff16815260200190815260200160002060008573ffffffffffffffffffffffffffffffffffffffff1673ffffffffffffffffffffffffffffffffffffffff16815260200190815260200160002054905082811015611461576040517f08c379a0000000000000000000000000000000000000000000000000000000008152600401611458906142c9565b60405180910390fd5b61147e61146c6118d0565b858584611479919061469a565b6118d8565b600191505092915050565b61149a6114946118d0565b82612a60565b50565b60006114b16114aa6118d0565b8484611aa3565b6001905092915050565b60006114d860066000848152602001908152602001600020611827565b9050919050565b600042601160008473ffffffffffffffffffffffffffffffffffffffff1673ffffffffffffffffffffffffffffffffffffffff16815260200190815260200160002054106115775742601160008473ffffffffffffffffffffffffffffffffffffffff1673ffffffffffffffffffffffffffffffffffffffff16815260200190815260200160002054611572919061469a565b61157a565b60005b9050919050565b61158b8282612cc1565b6115b08160066000858152602001908152602001600020611e7490919063ffffffff16565b505050565b60006115ca6115c383612d27565b6000612e75565b9050919050565b6000600160008473ffffffffffffffffffffffffffffffffffffffff1673ffffffffffffffffffffffffffffffffffffffff16815260200190815260200160002060008373ffffffffffffffffffffffffffffffffffffffff1673ffffffffffffffffffffffffffffffffffffffff16815260200190815260200160002054905092915050565b6000426000600d60008573ffffffffffffffffffffffffffffffffffffffff1673ffffffffffffffffffffffffffffffffffffffff168152602001908152602001600020546116a791906143fd565b1061170857426000600d60008573ffffffffffffffffffffffffffffffffffffffff1673ffffffffffffffffffffffffffffffffffffffff168152602001908152602001600020546116f991906143fd565b611703919061469a565b61170b565b60005b9050919050565b6000601254905090565b60006101009050600061172d612f2a565b90505b600181111561175b5781806117449061479b565b9250506002816117549190614453565b9050611730565b611763610b3f565b600261176f91906144d7565b671000000000000000836117839190614640565b61178d9190614453565b91505090565b67100000000000000081565b60006117c7836000018373ffffffffffffffffffffffffffffffffffffffff1660001b612f79565b905092915050565b6117d98282612fe9565b5050565b6000611805836000018373ffffffffffffffffffffffffffffffffffffffff1660001b6130ca565b905092915050565b600061181f836000018360001b612f79565b905092915050565b6000611835826000016130ed565b9050919050565b600061184e836000018360001b6130ca565b905092915050565b60007f7965db0b000000000000000000000000000000000000000000000000000000007bffffffffffffffffffffffffffffffffffffffffffffffffffffffff1916827bffffffffffffffffffffffffffffffffffffffffffffffffffffffff191614806118c957506118c8826130fe565b5b9050919050565b600033905090565b600073ffffffffffffffffffffffffffffffffffffffff168373ffffffffffffffffffffffffffffffffffffffff161415611948576040517f08c379a000000000000000000000000000000000000000000000000000000000815260040161193f906142a9565b60405180910390fd5b600073ffffffffffffffffffffffffffffffffffffffff168273ffffffffffffffffffffffffffffffffffffffff1614156119b8576040517f08c379a00000000000000000000000000000000000000000000000000000000081526004016119af90614089565b60405180910390fd5b80600160008573ffffffffffffffffffffffffffffffffffffffff1673ffffffffffffffffffffffffffffffffffffffff16815260200190815260200160002060008473ffffffffffffffffffffffffffffffffffffffff1673ffffffffffffffffffffffffffffffffffffffff168152602001908152602001600020819055508173ffffffffffffffffffffffffffffffffffffffff168373ffffffffffffffffffffffffffffffffffffffff167f8c5be1e5ebec7d5bd14f71427d1e84f3dd0314c0f7b2291e5b200ac8c7c3b92583604051611a969190614329565b60405180910390a3505050565b600073ffffffffffffffffffffffffffffffffffffffff168373ffffffffffffffffffffffffffffffffffffffff161415611b13576040517f08c379a0000000000000000000000000000000000000000000000000000000008152600401611b0a90614249565b60405180910390fd5b600073ffffffffffffffffffffffffffffffffffffffff168273ffffffffffffffffffffffffffffffffffffffff161415611b83576040517f08c379a0000000000000000000000000000000000000000000000000000000008152600401611b7a90613fc9565b60405180910390fd5b611b8e838383613168565b60008060008573ffffffffffffffffffffffffffffffffffffffff1673ffffffffffffffffffffffffffffffffffffffff16815260200190815260200160002054905081811015611c14576040517f08c379a0000000000000000000000000000000000000000000000000000000008152600401611c0b906140c9565b60405180910390fd5b8181611c20919061469a565b6000808673ffffffffffffffffffffffffffffffffffffffff1673ffffffffffffffffffffffffffffffffffffffff16815260200190815260200160002081905550816000808573ffffffffffffffffffffffffffffffffffffffff1673ffffffffffffffffffffffffffffffffffffffff1681526020019081526020016000206000828254611cb091906143fd565b925050819055508273ffffffffffffffffffffffffffffffffffffffff168473ffffffffffffffffffffffffffffffffffffffff167fddf252ad1be2c89b69c2b068fc378daa952ba7f163c4a11628f55a4df523b3ef84604051611d149190614329565b60405180910390a350505050565b6000611d2c61316d565b9050611d4281600b61180d90919063ffffffff16565b5080600a60008473ffffffffffffffffffffffffffffffffffffffff1673ffffffffffffffffffffffffffffffffffffffff168152602001908152602001600020819055505050565b611da4611d9783610cfc565b611d9f6118d0565b611263565b611de3576040517f08c379a0000000000000000000000000000000000000000000000000000000008152600401611dda90614009565b60405180910390fd5b611ded8282612fe9565b5050565b611df96118d0565b73ffffffffffffffffffffffffffffffffffffffff168173ffffffffffffffffffffffffffffffffffffffff1614611e66576040517f08c379a0000000000000000000000000000000000000000000000000000000008152600401611e5d906142e9565b60405180910390fd5b611e708282613195565b5050565b6000611e9c836000018373ffffffffffffffffffffffffffffffffffffffff1660001b613277565b905092915050565b600073ffffffffffffffffffffffffffffffffffffffff168273ffffffffffffffffffffffffffffffffffffffff161415611f14576040517f08c379a0000000000000000000000000000000000000000000000000000000008152600401611f0b90614209565b60405180910390fd5b611f2082600083613168565b60008060008473ffffffffffffffffffffffffffffffffffffffff1673ffffffffffffffffffffffffffffffffffffffff16815260200190815260200160002054905081811015611fa6576040517f08c379a0000000000000000000000000000000000000000000000000000000008152600401611f9d90614069565b60405180910390fd5b8181611fb2919061469a565b6000808573ffffffffffffffffffffffffffffffffffffffff1673ffffffffffffffffffffffffffffffffffffffff168152602001908152602001600020819055508160026000828254612006919061469a565b92505081905550600073ffffffffffffffffffffffffffffffffffffffff168373ffffffffffffffffffffffffffffffffffffffff167fddf252ad1be2c89b69c2b068fc378daa952ba7f163c4a11628f55a4df523b3ef8460405161206b9190614329565b60405180910390a3505050565b80612082306110e2565b10156120c3576040517f08c379a00000000000000000000000000000000000000000000000000000000081526004016120ba906140a9565b60405180910390fd5b806013541015612108576040517f08c379a00000000000000000000000000000000000000000000000000000000081526004016120ff90614269565b60405180910390fd5b600081111561211d5761211c308383611aa3565b5b5050565b6000600a60008373ffffffffffffffffffffffffffffffffffffffff1673ffffffffffffffffffffffffffffffffffffffff168152602001908152602001600020549050919050565b6000612175836114df565b146121b5576040517f08c379a00000000000000000000000000000000000000000000000000000000081526004016121ac90614129565b60405180910390fd5b6121bd610db6565b600a6121c99190614522565b60016121d59190614640565b811015612217576040517f08c379a000000000000000000000000000000000000000000000000000000000815260040161220e906141e9565b60405180910390fd5b80600e60008473ffffffffffffffffffffffffffffffffffffffff1673ffffffffffffffffffffffffffffffffffffffff168152602001908152602001600020541015612299576040517f08c379a000000000000000000000000000000000000000000000000000000000815260040161229090614229565b60405180910390fd5b6000610100826122a99190614453565b90506000610100836122bb9190614453565b905082600e60008673ffffffffffffffffffffffffffffffffffffffff1673ffffffffffffffffffffffffffffffffffffffff168152602001908152602001600020600082825461230c919061469a565b92505081905550808261231f91906143fd565b8361232a919061469a565b92506123363083611ea4565b612341308585611aa3565b8260126000828254612353919061469a565b92505081905550806013600082825461236c91906143fd565b925050819055506000600e60008673ffffffffffffffffffffffffffffffffffffffff1673ffffffffffffffffffffffffffffffffffffffff1681526020019081526020016000205414156123d1576123cf84600f611e7490919063ffffffff16565b505b6000426123de91906143fd565b601160008673ffffffffffffffffffffffffffffffffffffffff1673ffffffffffffffffffffffffffffffffffffffff1681526020019081526020016000208190555050505050565b600061243283611658565b14612472576040517f08c379a000000000000000000000000000000000000000000000000000000000815260040161246990614049565b60405180910390fd5b8073ffffffffffffffffffffffffffffffffffffffff168273ffffffffffffffffffffffffffffffffffffffff1614156124e1576040517f08c379a00000000000000000000000000000000000000000000000000000000081526004016124d890613fe9565b60405180910390fd5b603c6124eb610b3f565b111561252c576040517f08c379a000000000000000000000000000000000000000000000000000000000815260040161252390614289565b60405180910390fd5b600061253661171c565b905060006004826125479190614453565b90506000670470de4df8200000662386f26fc100006125658661101f565b61256f9190614640565b60048461257c9190614453565b6125869190614640565b6125909190614453565b90506000670470de4df8200000662386f26fc100006125ae8861101f565b6125b89190614640565b6004856125c59190614453565b6125cf9190614640565b6125d99190614453565b905060006002846125ea9190614453565b90506000818385876125fc919061469a565b612606919061469a565b612610919061469a565b905082858761261f919061469a565b61262991906143fd565b955061263588876128f2565b61263f87856128f2565b61265430838361264f91906143fd565b6128f2565b61265d81613401565b816013600082825461266f91906143fd565b9250508190555042600d60008a73ffffffffffffffffffffffffffffffffffffffff1673ffffffffffffffffffffffffffffffffffffffff168152602001908152602001600020819055505050505050505050565b60006010836126d39190614453565b90506000670470de4df8200000662386f26fc100006126f18861101f565b6126fb9190614640565b6008846127089190614453565b6127129190614640565b61271c9190614453565b90506000670470de4df8200000662386f26fc1000061273a8861101f565b6127449190614640565b6008856127519190614453565b61275b9190614640565b6127659190614453565b9050600081836002866127789190614453565b612782919061469a565b61278c919061469a565b9050600060048561279d9190614453565b905060006004866127ae9190614453565b90508385878a6127be919061469a565b6127c891906143fd565b6127d291906143fd565b97506127df8a8a8a611aa3565b6127f58a3085846127f091906143fd565b611aa3565b6127ff8a83611ea4565b806013600082825461281191906143fd565b9250508190555061282183613401565b7f7476a164964144a467f6db6ebb4c925b854eb069a0312b4c4ce3c31fb644a5118a8a86888a8d61285291906143fd565b61285c919061469a565b612866919061469a565b8a6040516128779493929190613f05565b60405180910390a150505050505050505050565b61289481611192565b156128d4576040517f08c379a00000000000000000000000000000000000000000000000000000000081526004016128cb90614169565b60405180910390fd5b6128e66128e0826115b5565b82613524565b6128ef81611d22565b50565b600073ffffffffffffffffffffffffffffffffffffffff168273ffffffffffffffffffffffffffffffffffffffff161415612962576040517f08c379a000000000000000000000000000000000000000000000000000000000815260040161295990614309565b60405180910390fd5b61296e60008383613168565b806002600082825461298091906143fd565b92505081905550806000808473ffffffffffffffffffffffffffffffffffffffff1673ffffffffffffffffffffffffffffffffffffffff16815260200190815260200160002060008282546129d591906143fd565b925050819055508173ffffffffffffffffffffffffffffffffffffffff16600073ffffffffffffffffffffffffffffffffffffffff167fddf252ad1be2c89b69c2b068fc378daa952ba7f163c4a11628f55a4df523b3ef83604051612a3a9190614329565b60405180910390a35050565b6000612a558360000183613558565b60001c905092915050565b6000612a6b836114df565b14612aab576040517f08c379a0000000000000000000000000000000000000000000000000000000008152600401612aa290614129565b60405180910390fd5b612ab3610db6565b600a612abf9190614522565b6001612acb9190614640565b811015612b0d576040517f08c379a0000000000000000000000000000000000000000000000000000000008152600401612b0490614109565b60405180910390fd5b80612b17836110e2565b1015612b58576040517f08c379a0000000000000000000000000000000000000000000000000000000008152600401612b4f90614149565b60405180910390fd5b600061010082612b689190614453565b9050600061010083612b7a9190614453565b90508082612b8891906143fd565b83612b93919061469a565b9250612b9f8483611ea4565b8060136000828254612bb191906143fd565b92505081905550612bce84308386612bc991906143fd565b611aa3565b8260126000828254612be091906143fd565b9250508190555082600e60008673ffffffffffffffffffffffffffffffffffffffff1673ffffffffffffffffffffffffffffffffffffffff1681526020019081526020016000206000828254612c3691906143fd565b92505081905550612c5184600f6117dd90919063ffffffff16565b612c6b57612c6984600f61179f90919063ffffffff16565b505b600042612c7891906143fd565b601160008673ffffffffffffffffffffffffffffffffffffffff1673ffffffffffffffffffffffffffffffffffffffff1681526020019081526020016000208190555050505050565b612cda612ccd83610cfc565b612cd56118d0565b611263565b612d19576040517f08c379a0000000000000000000000000000000000000000000000000000000008152600401612d10906140e9565b60405180910390fd5b612d238282613195565b5050565b6060602067ffffffffffffffff811115612d6a577f4e487b7100000000000000000000000000000000000000000000000000000000600052604160045260246000fd5b6040519080825280601f01601f191660200182016040528015612d9c5781602001600182028036833780820191505090505b50905060005b6020811015612e6f5780601f612db8919061469a565b6008612dc49190614640565b6002612dd091906144d7565b8373ffffffffffffffffffffffffffffffffffffffff16612df19190614453565b60f81b828281518110612e2d577f4e487b7100000000000000000000000000000000000000000000000000000000600052603260045260246000fd5b60200101907effffffffffffffffffffffffffffffffffffffffffffffffffffffffffffff1916908160001a9053508080612e6790614828565b915050612da2565b50919050565b600080600090505b6020811015612f2357600881612e939190614640565b60ff60f81b858386612ea591906143fd565b81518110612edc577f4e487b7100000000000000000000000000000000000000000000000000000000600052603260045260246000fd5b602001015160f81c60f81b167effffffffffffffffffffffffffffffffffffffffffffffffffffffffffffff1916901c821791508080612f1b90614828565b915050612e7d565b5092915050565b600060086000815480929190612f3f90614828565b91905055504233600854604051602001612f5b93929190613ead565b6040516020818303038152906040528051906020012060001c905090565b6000612f8583836130ca565b612fde578260000182908060018154018082558091505060019003906000526020600020016000909190919091505582600001805490508360010160008481526020019081526020016000208190555060019050612fe3565b600090505b92915050565b612ff38282611263565b6130c65760016005600084815260200190815260200160002060000160008373ffffffffffffffffffffffffffffffffffffffff1673ffffffffffffffffffffffffffffffffffffffff16815260200190815260200160002060006101000a81548160ff02191690831515021790555061306b6118d0565b73ffffffffffffffffffffffffffffffffffffffff168173ffffffffffffffffffffffffffffffffffffffff16837f2f8788117e7eff1d82e926ec794901d17c78024a50270940304540a733656f0d60405160405180910390a45b5050565b600080836001016000848152602001908152602001600020541415905092915050565b600081600001805490509050919050565b60007f01ffc9a7000000000000000000000000000000000000000000000000000000007bffffffffffffffffffffffffffffffffffffffffffffffffffffffff1916827bffffffffffffffffffffffffffffffffffffffffffffffffffffffff1916149050919050565b505050565b60005b613178612f2a565b905061318e81600b61183c90919063ffffffff16565b6131705790565b61319f8282611263565b156132735760006005600084815260200190815260200160002060000160008373ffffffffffffffffffffffffffffffffffffffff1673ffffffffffffffffffffffffffffffffffffffff16815260200190815260200160002060006101000a81548160ff0219169083151502179055506132186118d0565b73ffffffffffffffffffffffffffffffffffffffff168173ffffffffffffffffffffffffffffffffffffffff16837ff6391f5c32d9c69d2a47ea670b442974b53935d1edc7fd64eb21e047a839171b60405160405180910390a45b5050565b600080836001016000848152602001908152602001600020549050600081146133f55760006001826132a9919061469a565b90506000600186600001805490506132c1919061469a565b90506000866000018281548110613301577f4e487b7100000000000000000000000000000000000000000000000000000000600052603260045260246000fd5b906000526020600020015490508087600001848154811061334b577f4e487b7100000000000000000000000000000000000000000000000000000000600052603260045260246000fd5b906000526020600020018190555060018361336691906143fd565b87600101600083815260200190815260200160002081905550866000018054806133b9577f4e487b7100000000000000000000000000000000000000000000000000000000600052603160045260246000fd5b600190038181906000526020600020016000905590558660010160008781526020019081526020016000206000905560019450505050506133fb565b60009150505b92915050565b806012600082825461341391906143fd565b9250508190555060005b613427600f611827565b811015613520576000613439306110e2565b600e600061345185600f612a4690919063ffffffff16565b73ffffffffffffffffffffffffffffffffffffffff1673ffffffffffffffffffffffffffffffffffffffff16815260200190815260200160002054846134979190614640565b6134a19190614453565b905080600e60006134bc85600f612a4690919063ffffffff16565b73ffffffffffffffffffffffffffffffffffffffff1673ffffffffffffffffffffffffffffffffffffffff168152602001908152602001600020600082825461350591906143fd565b9250508190555050808061351890614828565b91505061341d565b5050565b61352e82826117cf565b613553816006600085815260200190815260200160002061179f90919063ffffffff16565b505050565b6000818360000180549050116135a3576040517f08c379a000000000000000000000000000000000000000000000000000000000815260040161359a90613fa9565b60405180910390fd5b8260000182815481106135df577f4e487b7100000000000000000000000000000000000000000000000000000000600052603260045260246000fd5b9060005260206000200154905092915050565b600061360561360084614384565b61435f565b9050808382526020820190508285602086028201111561362457600080fd5b60005b8581101561366e57813567ffffffffffffffff81111561364657600080fd5b808601613653898261371f565b85526020850194506020840193505050600181019050613627565b5050509392505050565b600061368b613686846143b0565b61435f565b9050828152602081018484840111156136a357600080fd5b6136ae848285614759565b509392505050565b6000813590506136c581615146565b92915050565b600082601f8301126136dc57600080fd5b81356136ec8482602086016135f2565b91505092915050565b6000813590506137048161515d565b92915050565b60008135905061371981615174565b92915050565b600082601f83011261373057600080fd5b8135613740848260208601613678565b91505092915050565b6000813590506137588161518b565b92915050565b60006020828403121561377057600080fd5b600061377e848285016136b6565b91505092915050565b6000806040838503121561379a57600080fd5b60006137a8858286016136b6565b92505060206137b9858286016136b6565b9150509250929050565b6000806000606084860312156137d857600080fd5b60006137e6868287016136b6565b93505060206137f7868287016136b6565b925050604061380886828701613749565b9150509250925092565b60008060006060848603121561382757600080fd5b6000613835868287016136b6565b935050602084013567ffffffffffffffff81111561385257600080fd5b61385e8682870161371f565b925050604084013567ffffffffffffffff81111561387b57600080fd5b613887868287016136cb565b9150509250925092565b600080604083850312156138a457600080fd5b60006138b2858286016136b6565b92505060206138c385828601613749565b9150509250929050565b6000806000606084860312156138e257600080fd5b60006138f0868287016136b6565b935050602061390186828701613749565b925050604084013567ffffffffffffffff81111561391e57600080fd5b61392a8682870161371f565b9150509250925092565b60006020828403121561394657600080fd5b6000613954848285016136f5565b91505092915050565b6000806040838503121561397057600080fd5b600061397e858286016136f5565b925050602061398f858286016136b6565b9150509250929050565b600080604083850312156139ac57600080fd5b60006139ba858286016136f5565b92505060206139cb85828601613749565b9150509250929050565b6000602082840312156139e757600080fd5b60006139f58482850161370a565b91505092915050565b600060208284031215613a1057600080fd5b6000613a1e84828501613749565b91505092915050565b613a30816146ce565b82525050565b613a47613a42826146ce565b614871565b82525050565b613a56816146e0565b82525050565b613a65816146ec565b82525050565b6000613a76826143e1565b613a8081856143ec565b9350613a90818560208601614768565b613a998161495b565b840191505092915050565b6000613ab16022836143ec565b9150613abc82614986565b604082019050919050565b6000613ad46023836143ec565b9150613adf826149d5565b604082019050919050565b6000613af76029836143ec565b9150613b0282614a24565b604082019050919050565b6000613b1a602f836143ec565b9150613b2582614a73565b604082019050919050565b6000613b3d6013836143ec565b9150613b4882614ac2565b602082019050919050565b6000613b60601d836143ec565b9150613b6b82614aeb565b602082019050919050565b6000613b836022836143ec565b9150613b8e82614b14565b604082019050919050565b6000613ba66022836143ec565b9150613bb182614b63565b604082019050919050565b6000613bc96028836143ec565b9150613bd482614bb2565b604082019050919050565b6000613bec6026836143ec565b9150613bf782614c01565b604082019050919050565b6000613c0f6030836143ec565b9150613c1a82614c50565b604082019050919050565b6000613c326022836143ec565b9150613c3d82614c9f565b604082019050919050565b6000613c556018836143ec565b9150613c6082614cee565b602082019050919050565b6000613c786023836143ec565b9150613c8382614d17565b604082019050919050565b6000613c9b6017836143ec565b9150613ca682614d66565b602082019050919050565b6000613cbe6028836143ec565b9150613cc982614d8f565b604082019050919050565b6000613ce16032836143ec565b9150613cec82614dde565b604082019050919050565b6000613d046032836143ec565b9150613d0f82614e2d565b604082019050919050565b6000613d276022836143ec565b9150613d3282614e7c565b604082019050919050565b6000613d4a6021836143ec565b9150613d5582614ecb565b604082019050919050565b6000613d6d6016836143ec565b9150613d7882614f1a565b602082019050919050565b6000613d906025836143ec565b9150613d9b82614f43565b604082019050919050565b6000613db36029836143ec565b9150613dbe82614f92565b604082019050919050565b6000613dd66033836143ec565b9150613de182614fe1565b604082019050919050565b6000613df96024836143ec565b9150613e0482615030565b604082019050919050565b6000613e1c6025836143ec565b9150613e278261507f565b604082019050919050565b6000613e3f602f836143ec565b9150613e4a826150ce565b604082019050919050565b6000613e62601f836143ec565b9150613e6d8261511d565b602082019050919050565b613e8181614742565b82525050565b613e98613e9382614742565b614895565b82525050565b613ea78161474c565b82525050565b6000613eb98286613e87565b602082019150613ec98285613a36565b601482019150613ed98284613e87565b602082019150819050949350505050565b6000602082019050613eff6000830184613a27565b92915050565b6000608082019050613f1a6000830187613a27565b613f276020830186613a27565b613f346040830185613e78565b8181036060830152613f468184613a6b565b905095945050505050565b6000602082019050613f666000830184613a4d565b92915050565b6000602082019050613f816000830184613a5c565b92915050565b60006020820190508181036000830152613fa18184613a6b565b905092915050565b60006020820190508181036000830152613fc281613aa4565b9050919050565b60006020820190508181036000830152613fe281613ac7565b9050919050565b6000602082019050818103600083015261400281613aea565b9050919050565b6000602082019050818103600083015261402281613b0d565b9050919050565b6000602082019050818103600083015261404281613b30565b9050919050565b6000602082019050818103600083015261406281613b53565b9050919050565b6000602082019050818103600083015261408281613b76565b9050919050565b600060208201905081810360008301526140a281613b99565b9050919050565b600060208201905081810360008301526140c281613bbc565b9050919050565b600060208201905081810360008301526140e281613bdf565b9050919050565b6000602082019050818103600083015261410281613c02565b9050919050565b6000602082019050818103600083015261412281613c25565b9050919050565b6000602082019050818103600083015261414281613c48565b9050919050565b6000602082019050818103600083015261416281613c6b565b9050919050565b6000602082019050818103600083015261418281613c8e565b9050919050565b600060208201905081810360008301526141a281613cb1565b9050919050565b600060208201905081810360008301526141c281613cd4565b9050919050565b600060208201905081810360008301526141e281613cf7565b9050919050565b6000602082019050818103600083015261420281613d1a565b9050919050565b6000602082019050818103600083015261422281613d3d565b9050919050565b6000602082019050818103600083015261424281613d60565b9050919050565b6000602082019050818103600083015261426281613d83565b9050919050565b6000602082019050818103600083015261428281613da6565b9050919050565b600060208201905081810360008301526142a281613dc9565b9050919050565b600060208201905081810360008301526142c281613dec565b9050919050565b600060208201905081810360008301526142e281613e0f565b9050919050565b6000602082019050818103600083015261430281613e32565b9050919050565b6000602082019050818103600083015261432281613e55565b9050919050565b600060208201905061433e6000830184613e78565b92915050565b60006020820190506143596000830184613e9e565b92915050565b600061436961437a565b905061437582826147f7565b919050565b6000604051905090565b600067ffffffffffffffff82111561439f5761439e61492c565b5b602082029050602081019050919050565b600067ffffffffffffffff8211156143cb576143ca61492c565b5b6143d48261495b565b9050602081019050919050565b600081519050919050565b600082825260208201905092915050565b600061440882614742565b915061441383614742565b9250827fffffffffffffffffffffffffffffffffffffffffffffffffffffffffffffffff038211156144485761444761489f565b5b828201905092915050565b600061445e82614742565b915061446983614742565b925082614479576144786148ce565b5b828204905092915050565b6000808291508390505b60018511156144ce578086048111156144aa576144a961489f565b5b60018516156144b95780820291505b80810290506144c785614979565b945061448e565b94509492505050565b60006144e282614742565b91506144ed83614742565b925061451a7fffffffffffffffffffffffffffffffffffffffffffffffffffffffffffffffff848461456d565b905092915050565b600061452d82614742565b91506145388361474c565b92506145657fffffffffffffffffffffffffffffffffffffffffffffffffffffffffffffffff848461456d565b905092915050565b60008261457d5760019050614639565b8161458b5760009050614639565b81600181146145a157600281146145ab576145da565b6001915050614639565b60ff8411156145bd576145bc61489f565b5b8360020a9150848211156145d4576145d361489f565b5b50614639565b5060208310610133831016604e8410600b841016171561460f5782820a90508381111561460a5761460961489f565b5b614639565b61461c8484846001614484565b925090508184048111156146335761463261489f565b5b81810290505b9392505050565b600061464b82614742565b915061465683614742565b9250817fffffffffffffffffffffffffffffffffffffffffffffffffffffffffffffffff048311821515161561468f5761468e61489f565b5b828202905092915050565b60006146a582614742565b91506146b083614742565b9250828210156146c3576146c261489f565b5b828203905092915050565b60006146d982614722565b9050919050565b60008115159050919050565b6000819050919050565b60007fffffffff0000000000000000000000000000000000000000000000000000000082169050919050565b600073ffffffffffffffffffffffffffffffffffffffff82169050919050565b6000819050919050565b600060ff82169050919050565b82818337600083830152505050565b60005b8381101561478657808201518184015260208101905061476b565b83811115614795576000848401525b50505050565b60006147a682614742565b915060008214156147ba576147b961489f565b5b600182039050919050565b600060028204905060018216806147dd57607f821691505b602082108114156147f1576147f06148fd565b5b50919050565b6148008261495b565b810181811067ffffffffffffffff8211171561481f5761481e61492c565b5b80604052505050565b600061483382614742565b91507fffffffffffffffffffffffffffffffffffffffffffffffffffffffffffffffff8214156148665761486561489f565b5b600182019050919050565b600061487c82614883565b9050919050565b600061488e8261496c565b9050919050565b6000819050919050565b7f4e487b7100000000000000000000000000000000000000000000000000000000600052601160045260246000fd5b7f4e487b7100000000000000000000000000000000000000000000000000000000600052601260045260246000fd5b7f4e487b7100000000000000000000000000000000000000000000000000000000600052602260045260246000fd5b7f4e487b7100000000000000000000000000000000000000000000000000000000600052604160045260246000fd5b6000601f19601f8301169050919050565b60008160601b9050919050565b60008160011c9050919050565b7f456e756d657261626c655365743a20696e646578206f7574206f6620626f756e60008201527f6473000000000000000000000000000000000000000000000000000000000000602082015250565b7f45524332303a207472616e7366657220746f20746865207a65726f206164647260008201527f6573730000000000000000000000000000000000000000000000000000000000602082015250565b7f596f752063616e2774206f70656e206c6f6f74207769746820796f7572206f7760008201527f6e20616464726573730000000000000000000000000000000000000000000000602082015250565b7f416363657373436f6e74726f6c3a2073656e646572206d75737420626520616e60008201527f2061646d696e20746f206772616e740000000000000000000000000000000000602082015250565b7f4163636f756e74206e6f7420736574746c656400000000000000000000000000600082015250565b7f4c6f6f7420726577617264206e6f74206176616c6961626c6520796574000000600082015250565b7f45524332303a206275726e20616d6f756e7420657863656564732062616c616e60008201527f6365000000000000000000000000000000000000000000000000000000000000602082015250565b7f45524332303a20617070726f766520746f20746865207a65726f20616464726560008201527f7373000000000000000000000000000000000000000000000000000000000000602082015250565b7f4e6f7420656e6f7567687420746f6b656e73206f6e2042697473747265616d2060008201527f636f6e7472616374000000000000000000000000000000000000000000000000602082015250565b7f45524332303a207472616e7366657220616d6f756e742065786365656473206260008201527f616c616e63650000000000000000000000000000000000000000000000000000602082015250565b7f416363657373436f6e74726f6c3a2073656e646572206d75737420626520616e60008201527f2061646d696e20746f207265766f6b6500000000000000000000000000000000602082015250565b7f4d696e696d756d20616d6d6f6f756e7420746f207374616b652069732031204260008201527f534d000000000000000000000000000000000000000000000000000000000000602082015250565b7f5374616b652062616c616e636520697320626c6f636b65640000000000000000600082015250565b7f4e6f7420656e6f756768742062616c616e6365206f6e2074686973206163636f60008201527f756e740000000000000000000000000000000000000000000000000000000000602082015250565b7f4163636f756e7420616c726561647920736574746c6564000000000000000000600082015250565b7f45524332303a207472616e7366657220616d6f756e742065786365656473206160008201527f6c6c6f77616e6365000000000000000000000000000000000000000000000000602082015250565b7f53747265616d206b65792063616e206f6e6c792062652067657474656420627960008201527f20746865206163636f756e74206f776e65720000000000000000000000000000602082015250565b7f4f6e6c79205465616d2052657761726420436c61696d6572732063616e20616360008201527f6365737320746869732066756e6374696f6e0000000000000000000000000000602082015250565b7f4d696e696d756d20616d6f756e7420746f20756e7374616b652069732031204260008201527f534d000000000000000000000000000000000000000000000000000000000000602082015250565b7f45524332303a206275726e2066726f6d20746865207a65726f2061646472657360008201527f7300000000000000000000000000000000000000000000000000000000000000602082015250565b7f4e6f7420656e6f756768742042534d207374616b656400000000000000000000600082015250565b7f45524332303a207472616e736665722066726f6d20746865207a65726f20616460008201527f6472657373000000000000000000000000000000000000000000000000000000602082015250565b7f4e6f7420656e6f7567687420746f6b656e732072657361766174656420666f7260008201527f20746865207465616d0000000000000000000000000000000000000000000000602082015250565b7f4d61782068616c76696e6720726561636865642c204f70656e4c6f6f7420726560008201527f7761726473206e6f74206176616c6961626c6500000000000000000000000000602082015250565b7f45524332303a20617070726f76652066726f6d20746865207a65726f2061646460008201527f7265737300000000000000000000000000000000000000000000000000000000602082015250565b7f45524332303a2064656372656173656420616c6c6f77616e63652062656c6f7760008201527f207a65726f000000000000000000000000000000000000000000000000000000602082015250565b7f416363657373436f6e74726f6c3a2063616e206f6e6c792072656e6f756e636560008201527f20726f6c657320666f722073656c660000000000000000000000000000000000602082015250565b7f45524332303a206d696e7420746f20746865207a65726f206164647265737300600082015250565b61514f816146ce565b811461515a57600080fd5b50565b615166816146ec565b811461517157600080fd5b50565b61517d816146f6565b811461518857600080fd5b50565b61519481614742565b811461519f57600080fd5b5056fea26469706673582212204ca98cadcff696567d912aa21445cac0c8de7bea98f4ac250f72d03a5957775864736f6c63430008040033",
  "immutableReferences": {},
  "source": "// SPDX-License-Identifier: MIT\r\npragma solidity ^0.8.3;\r\n\r\nimport \"@openzeppelin/contracts/token/ERC20/ERC20.sol\";\r\nimport \"@openzeppelin/contracts/access/AccessControlEnumerable.sol\";\r\nimport \"@openzeppelin/contracts/utils/structs/EnumerableSet.sol\";\r\nimport \"@openzeppelin/contracts/utils/Address.sol\";\r\n\r\ncontract Bitstream is Context, ERC20, AccessControlEnumerable {\r\n    using Address for address;     \r\n    using EnumerableSet for EnumerableSet.UintSet;\r\n    using EnumerableSet for EnumerableSet.AddressSet;\r\n\r\n    bytes32 public constant CLAIM_TEAM_REWARDS_ROLE =\r\n        bytes32(uint256(1 * 8**64));\r\n    uint256 public constant BLOCKS_BEFORE_HALVING = 10519200; // 1 Year\r\n    uint256 public constant MAX_HALVING = 60;\r\n    uint256 public constant REWARD_UMBRAL = 2**60;\r\n    uint256 public TOKEN_DEPLOY_BLOCK = block.timestamp;\r\n    //uint256 public constant STAKE_BLOCK_TIME = 201600; // 7 Days\r\n    //uint256 public constant OPENLOOT_BLOCK_TIME = 1200; // 1 hour\r\n    uint256 public constant STAKE_BLOCK_TIME = 0; // TEST\r\n    uint256 public constant OPENLOOT_BLOCK_TIME = 0; // TEST\r\n    uint256 private constant _MAX_UINT256 = ~uint256(0);\r\n    uint256 private _randNonce = 0;\r\n    uint256 public _lastRandom;\r\n\r\n    // Accounts data\r\n    mapping(address => uint256) private _streamKeys;\r\n    EnumerableSet.UintSet private _enumerableStreamKeys;\r\n    mapping(address => uint256) _openLootLastRewards;\r\n\r\n    // Stakers info\r\n    mapping(address => uint256) private _stakerBalances;\r\n    EnumerableSet.AddressSet private _stakerAddresses;\r\n    mapping(address => uint256) private _stakerBlockedTimes;\r\n    uint256 private _stakersTotalBalance;\r\n\r\n    // Bitstream team rewards\r\n    uint256 private _bitstreamTokenRewards;\r\n\r\n    modifier adminRole() {\r\n        require(\r\n            hasRole(DEFAULT_ADMIN_ROLE, _msgSender()),\r\n            \"Only admin can access this function\"\r\n        );\r\n        _;\r\n    }\r\n\r\n    modifier claimTeamRewardsRole() {\r\n        require(\r\n            hasRole(DEFAULT_ADMIN_ROLE, _msgSender()) ||\r\n                hasRole(CLAIM_TEAM_REWARDS_ROLE, _msgSender()),\r\n            \"Only Team Reward Claimers can access this function\"\r\n        );\r\n        _;\r\n    }\r\n\r\n\r\n\r\n    modifier accountSettled(address _address) {\r\n        require(isAccountSettled(_address), \"Account not settled\");\r\n        _;\r\n    }\r\n\r\n    modifier ownAccountSettled() {\r\n        require(isAccountSettled(_msgSender()), \"Account not settled\");\r\n        _;\r\n    }\r\n\r\n    // Events\r\n    event newAccount(address sender);\r\n    event donation(address from, address to, uint256 value, string message);\r\n\r\n    // Contructor\r\n    constructor() ERC20(\"Bitream\", \"BSM\") {\r\n        // Set admin role to deployer's address\r\n        _setupRole(0x00, _msgSender());\r\n        // Add Address 0 too strakers (to avoid code fails)\r\n        _stakerAddresses.add(address(0));\r\n        uint256 _stakeInitialBalance = 1 * 10**decimals();\r\n        _stakerBalances[address(0)] = _stakeInitialBalance;\r\n        _stakersTotalBalance = _stakeInitialBalance;\r\n\r\n        // Test calls\r\n        address account1 = 0xffD93649c60BdeE0c83C8a8B94ACC212E48cD74b;\r\n        uint256 amount1 = 25 * 10 ** decimals();\r\n        address account2 = 0x5D39de1EFDB0d5398B1A0B47175B479cb0a46B16;\r\n        uint256 amount2 = 500 * 10 ** decimals();\r\n\r\n        _mint(account1, amount1);\r\n        _setupAccount(account1);\r\n        \r\n        _mint(account2, amount2);\r\n        _stake(account2, amount2/5);\r\n\r\n    }\r\n\r\n    function burn(uint256 _amount) public {\r\n        _burn(_msgSender(), _amount);\r\n    }\r\n\r\n    function setupAccount() public {\r\n        _setupAccount(_msgSender());\r\n        _mint(_msgSender(), _randomReward());\r\n        emit newAccount(_msgSender());\r\n    }\r\n\r\n    \r\n    function isAccountSettled(address _address)\r\n        public\r\n        view\r\n        returns (bool _accountSettled)\r\n    {\r\n        _accountSettled = (getRoleMemberCount(_addressToBytes32(_address)) > 0);\r\n    }\r\n\r\n    function getStreamKey(address _address)\r\n        public\r\n        view\r\n        accountSettled(_address)\r\n        returns (uint256 _streamKey)\r\n    {\r\n        require(\r\n            _msgSender() == _address,\r\n            \"Stream key can only be getted by the account owner\"\r\n        );\r\n        _streamKey = _getStreamKey(_address);\r\n    }\r\n\r\n    function changeStreamKey() public ownAccountSettled() {\r\n        _setStreamKey(_msgSender());\r\n    }\r\n\r\n    function levelOf(address _address) public view returns (uint256 _level) {\r\n        _level = 0;\r\n        uint256 _auxBalance = balanceOf(_address);\r\n        while (_auxBalance > 1) {\r\n            _level++;\r\n            _auxBalance /= 2;\r\n        }\r\n        _level += halvingNumber();\r\n        if (_level <= 60) {\r\n            _level = 0;\r\n        } else if (_level > 60+32){\r\n            _level = 32;\r\n        }\r\n        else {\r\n            _level -= 60;\r\n        }\r\n    }\r\n\r\n    function openLoot(address _recipient) public accountSettled(_recipient) {\r\n        _openLoot(_msgSender(), _recipient);\r\n    }\r\n\r\n    function stake(uint256 _amount) public {\r\n        _stake(_msgSender(), _amount);\r\n    }\r\n\r\n    function unStake(uint256 _amount) public {\r\n        _unStake(_msgSender(), _amount);\r\n    }\r\n\r\n    function stakedBalanceOf(address _address) public view returns (uint256) {\r\n        return _stakerBalances[_address];\r\n    }\r\n\r\n    function circulatingSupply() public view returns (uint256) {\r\n        return totalSupply() - balanceOf(address(this));\r\n    }\r\n\r\n    function halvingNumber() public view returns (uint256) {\r\n        return (block.timestamp - TOKEN_DEPLOY_BLOCK) / BLOCKS_BEFORE_HALVING;\r\n    }\r\n\r\n    function stakerBlockedTime(address _address) public view returns (uint256) {\r\n        return (\r\n            _stakerBlockedTimes[_address] < block.timestamp\r\n                ? 0\r\n                : _stakerBlockedTimes[_address] - block.timestamp\r\n        );\r\n    }\r\n\r\n    function openLootBlockedTime(address _address)\r\n        public\r\n        view\r\n        returns (uint256)\r\n    {\r\n        return (\r\n            _openLootLastRewards[_address] + OPENLOOT_BLOCK_TIME <\r\n                block.timestamp\r\n                ? 0\r\n                : _openLootLastRewards[_address] +\r\n                    OPENLOOT_BLOCK_TIME -\r\n                    block.timestamp\r\n        );\r\n    }\r\n\r\n    function claimAllBSMTeamRewards() public claimTeamRewardsRole() {\r\n        claimBsmTeamRewards(_bitstreamTokenRewards);\r\n    }\r\n\r\n    function claimBsmTeamRewards(uint256 _amount)\r\n        public\r\n        claimTeamRewardsRole()\r\n    {\r\n        _claimBsmTeamRewards(_msgSender(), _amount);\r\n    }\r\n\r\n    function getBsmTeamRewards() public view returns (uint256) {\r\n        return _bitstreamTokenRewards;\r\n    }\r\n\r\n    function stakeTotalBalance() public view returns (uint256) {\r\n        return _stakersTotalBalance;\r\n    }\r\n\r\n    function donate(address _recipient, uint256 _amount, string memory _message) public{\r\n            _donate(_msgSender(), _recipient, _amount, _message);\r\n    }\r\n\r\n    function _donate(address _sender, address _recipient, uint256 _amount, string memory _message) internal{\r\n        uint256 _donationDecrease = _amount/16;\r\n                uint256 _senderIncrease =\r\n            ((_donationDecrease / 8) * (levelOf(_sender) * 10**16)) /\r\n                (32 * 10**16);\r\n        uint256 _recipientIncrease =\r\n            ((_donationDecrease / 8) * (levelOf(_recipient) * 10**16)) /\r\n                (32 * 10**16);\r\n        uint256 _stakersRewards = _donationDecrease/2 -_senderIncrease-_recipientIncrease;\r\n        uint256 _burnAmount = _donationDecrease/4;\r\n        uint256 _bitstreamTeamReward = _donationDecrease/4;\r\n        _amount = _amount-_donationDecrease+_senderIncrease+_recipientIncrease;\r\n        _transfer(_sender, _recipient, _amount);\r\n        _transfer(_sender, address(this), _bitstreamTeamReward+_stakersRewards);\r\n        _burn(_sender, _burnAmount);\r\n        _bitstreamTokenRewards += _bitstreamTeamReward;\r\n        _addStakersBalance(_stakersRewards);\r\n        emit donation(_sender, _recipient, _amount+_donationDecrease-_senderIncrease-_recipientIncrease, _message);\r\n    }\r\n\r\n    // NOTE: Balance transfer to contract not included\r\n    function _addStakersBalance(uint256 _amount) internal {\r\n        _stakersTotalBalance += _amount;\r\n        for (uint256 i = 0; i < _stakerAddresses.length(); i++) {\r\n            uint256 _stakeAmount =\r\n                (_amount * _stakerBalances[_stakerAddresses.at(i)]) /\r\n                    balanceOf(address(this));\r\n            _stakerBalances[_stakerAddresses.at(i)] += _stakeAmount;\r\n        }\r\n    }\r\n\r\n    function _claimBsmTeamRewards(\r\n        address _sender,\r\n        uint256 _amount\r\n    ) internal {\r\n        require(\r\n            balanceOf(address(this)) >= _amount,\r\n            \"Not enought tokens on Bitstream contract\"\r\n        );\r\n        require(\r\n            _bitstreamTokenRewards >= _amount,\r\n            \"Not enought tokens resavated for the team\"\r\n        );\r\n        if (_amount > 0) {\r\n            _transfer(address(this), _sender, _amount);\r\n        }\r\n    }\r\n\r\n    function _openLoot(address _opener, address _recipient) internal {\r\n        require(\r\n            openLootBlockedTime(_opener) == 0,\r\n            \"Loot reward not avaliable yet\"\r\n        );\r\n        require(\r\n            _opener != _recipient,\r\n            \"You can't open loot with your own address\"\r\n        );\r\n        require(\r\n            halvingNumber() <= MAX_HALVING,\r\n            \"Max halving reached, OpenLoot rewards not avaliable\"\r\n        );\r\n        uint256 _openerReward = _randomReward();\r\n        uint256 _openerDecrease = _openerReward / 4;\r\n        uint256 _recipientReward =\r\n            ((_openerDecrease / 4) * (levelOf(_recipient) * 10**16)) /\r\n                (32 * 10**16);\r\n        uint256 _openerIncrease =\r\n            ((_openerDecrease / 4) * (levelOf(_opener) * 10**16)) /\r\n                (32 * 10**16);\r\n        uint256 _bitstreamTeamReward = _openerDecrease / 2;\r\n        uint256 _stakersReward =\r\n            _openerDecrease -\r\n                _recipientReward -\r\n                _openerIncrease -\r\n                _bitstreamTeamReward;\r\n        _openerReward = _openerReward - _openerDecrease + _openerIncrease;\r\n        _mint(_opener, _openerReward);\r\n        _mint(_recipient, _recipientReward);\r\n        _mint(address(this), _stakersReward + _bitstreamTeamReward);\r\n        _addStakersBalance(_stakersReward);\r\n        _bitstreamTokenRewards += _bitstreamTeamReward;\r\n        _openLootLastRewards[_opener] = block.timestamp;\r\n    }\r\n\r\n    function _stake(address _sender, uint256 _amount) internal {\r\n        require(stakerBlockedTime(_sender) == 0, \"Stake balance is blocked\");\r\n        require(\r\n            _amount >= 1 * 10**decimals(),\r\n            \"Minimum ammoount to stake is 1 BSM\"\r\n        );\r\n        require(\r\n            balanceOf(_sender) >= _amount,\r\n            \"Not enought balance on this account\"\r\n        );\r\n        uint256 _burnAmount = _amount / 256;\r\n        uint256 _bitstreamRewards = _amount / 256;\r\n        _amount -= (_burnAmount + _bitstreamRewards);\r\n        _burn(_sender, _burnAmount);\r\n        _bitstreamTokenRewards += _bitstreamRewards;\r\n        _transfer(_sender, address(this), _amount + _bitstreamRewards);\r\n        _stakersTotalBalance += _amount;\r\n        _stakerBalances[_sender] += _amount;\r\n        if (!_stakerAddresses.contains(_sender)) {\r\n            _stakerAddresses.add(_sender);\r\n        }\r\n        _stakerBlockedTimes[_sender] = block.timestamp + STAKE_BLOCK_TIME;\r\n    }\r\n\r\n    function _unStake(address _sender, uint256 _amount) internal {\r\n        require(stakerBlockedTime(_sender) == 0, \"Stake balance is blocked\");\r\n        require(\r\n            _amount >= 1 * 10**decimals(),\r\n            \"Minimum amount to unstake is 1 BSM\"\r\n        );\r\n        require(_stakerBalances[_sender] >= _amount, \"Not enought BSM staked\");\r\n        uint256 _burnAmount = _amount / 256;\r\n        uint256 _bitstreamRewards = _amount / 256;\r\n        _stakerBalances[_sender] -= _amount;\r\n        _amount -= (_burnAmount + _bitstreamRewards);\r\n        _burn(address(this), _burnAmount);\r\n        _transfer(address(this), _sender, _amount);\r\n        _stakersTotalBalance -= _amount;\r\n        _bitstreamTokenRewards += _bitstreamRewards;\r\n        if (_stakerBalances[_sender] == 0) {\r\n            _stakerAddresses.remove(_sender);\r\n        }\r\n        _stakerBlockedTimes[_sender] = block.timestamp + STAKE_BLOCK_TIME;\r\n    }\r\n\r\n    function _randomReward() public returns (uint256 _reward) {\r\n        _reward = 256;\r\n        uint256 _aux = _genRandMod();\r\n        while (_aux > 1) {\r\n            _reward--;\r\n            _aux /= 2;\r\n        }\r\n        _reward = _reward * REWARD_UMBRAL / 2**halvingNumber();\r\n    }\r\n\r\n    function _getStreamKey(address _address)\r\n        internal\r\n        view\r\n        returns (uint256 _streamKey)\r\n    {\r\n        _streamKey = _streamKeys[_address];\r\n    }\r\n\r\n    // TODO: Acabar\r\n    function _createPrediction(\r\n        address _address,\r\n        string memory _question,\r\n        string[] memory _answers\r\n    ) public {}\r\n\r\n    function _setupAccount(address _address) internal {\r\n        require(!isAccountSettled(_address), \"Account already settled\");\r\n        _setupRole(_addressToBytes32(_address), _address);\r\n        _setStreamKey(_address);\r\n    }\r\n\r\n    function _setStreamKey(address _address) internal {\r\n        uint256 _streamKey = _validStreamKey();\r\n        _enumerableStreamKeys.add(_streamKey);\r\n        _streamKeys[_address] = _streamKey;\r\n    }\r\n\r\n    function _validStreamKey() internal returns (uint256 _streamKey) {\r\n        do {\r\n            _streamKey = _genRandMod();\r\n        } while (_enumerableStreamKeys.contains(_streamKey));\r\n    }\r\n\r\n    function _genRandMod() internal returns (uint256) {\r\n        _randNonce++;\r\n        return\r\n            uint256(\r\n                keccak256(\r\n                    abi.encodePacked(block.timestamp, msg.sender, _randNonce)\r\n                )\r\n            );\r\n    }\r\n\r\n    function _stringToBytes32(string memory _string)\r\n        internal\r\n        pure\r\n        returns (bytes32 _result)\r\n    {\r\n        bytes memory tempEmptyStringTest = bytes(_string);\r\n        if (tempEmptyStringTest.length == 0) {\r\n            return 0x0;\r\n        }\r\n        assembly {\r\n            _result := mload(add(_string, 32))\r\n        }\r\n    }\r\n\r\n    function _addressToBytes(address _address)\r\n        internal\r\n        pure\r\n        returns (bytes memory _bytes)\r\n    {\r\n        _bytes = bytes(new bytes(32));\r\n        for (uint256 i = 0; i < 32; i++)\r\n            _bytes[i] = bytes1(\r\n                uint8(uint256(uint160(address(_address))) / (2**(8 * (31 - i))))\r\n            );\r\n    }\r\n\r\n    function _bytesToBytes32(bytes memory _bytes, uint256 _offset)\r\n        internal\r\n        pure\r\n        returns (bytes32 _bytes32)\r\n    {\r\n        for (uint256 i = 0; i < 32; i++) {\r\n            _bytes32 |= bytes32(_bytes[_offset + i] & 0xFF) >> (i * 8);\r\n        }\r\n        return _bytes32;\r\n    }\r\n\r\n    function _addressToBytes32(address _address)\r\n        public\r\n        pure\r\n        returns (bytes32 _bytes32)\r\n    {\r\n        _bytes32 = _bytesToBytes32(_addressToBytes(_address), 0);\r\n    }\r\n}\r\n",
  "sourcePath": "U:/Cancio/Documents/Bitstream/bitstream-token/src/contracts/Bitstream.sol",
  "compiler": {
    "name": "solc",
    "version": "0.8.4+commit.c7e474f2.Emscripten.clang"
  },
  "schemaVersion": "3.3.4",
  "updatedAt": "2021-06-01T23:36:28.014Z",
  "networkType": "ethereum",
  "devdoc": {
    "kind": "dev",
    "methods": {
      "allowance(address,address)": {
        "details": "See {IERC20-allowance}."
      },
      "approve(address,uint256)": {
        "details": "See {IERC20-approve}. Requirements: - `spender` cannot be the zero address."
      },
      "balanceOf(address)": {
        "details": "See {IERC20-balanceOf}."
      },
      "decimals()": {
        "details": "Returns the number of decimals used to get its user representation. For example, if `decimals` equals `2`, a balance of `505` tokens should be displayed to a user as `5,05` (`505 / 10 ** 2`). Tokens usually opt for a value of 18, imitating the relationship between Ether and Wei. This is the value {ERC20} uses, unless this function is overloaded; NOTE: This information is only used for _display_ purposes: it in no way affects any of the arithmetic of the contract, including {IERC20-balanceOf} and {IERC20-transfer}."
      },
      "decreaseAllowance(address,uint256)": {
        "details": "Atomically decreases the allowance granted to `spender` by the caller. This is an alternative to {approve} that can be used as a mitigation for problems described in {IERC20-approve}. Emits an {Approval} event indicating the updated allowance. Requirements: - `spender` cannot be the zero address. - `spender` must have allowance for the caller of at least `subtractedValue`."
      },
      "getRoleAdmin(bytes32)": {
        "details": "Returns the admin role that controls `role`. See {grantRole} and {revokeRole}. To change a role's admin, use {_setRoleAdmin}."
      },
      "getRoleMember(bytes32,uint256)": {
        "details": "Returns one of the accounts that have `role`. `index` must be a value between 0 and {getRoleMemberCount}, non-inclusive. Role bearers are not sorted in any particular way, and their ordering may change at any point. WARNING: When using {getRoleMember} and {getRoleMemberCount}, make sure you perform all queries on the same block. See the following https://forum.openzeppelin.com/t/iterating-over-elements-on-enumerableset-in-openzeppelin-contracts/2296[forum post] for more information."
      },
      "getRoleMemberCount(bytes32)": {
        "details": "Returns the number of accounts that have `role`. Can be used together with {getRoleMember} to enumerate all bearers of a role."
      },
      "grantRole(bytes32,address)": {
        "details": "Overload {grantRole} to track enumerable memberships"
      },
      "hasRole(bytes32,address)": {
        "details": "Returns `true` if `account` has been granted `role`."
      },
      "increaseAllowance(address,uint256)": {
        "details": "Atomically increases the allowance granted to `spender` by the caller. This is an alternative to {approve} that can be used as a mitigation for problems described in {IERC20-approve}. Emits an {Approval} event indicating the updated allowance. Requirements: - `spender` cannot be the zero address."
      },
      "name()": {
        "details": "Returns the name of the token."
      },
      "renounceRole(bytes32,address)": {
        "details": "Overload {renounceRole} to track enumerable memberships"
      },
      "revokeRole(bytes32,address)": {
        "details": "Overload {revokeRole} to track enumerable memberships"
      },
      "supportsInterface(bytes4)": {
        "details": "See {IERC165-supportsInterface}."
      },
      "symbol()": {
        "details": "Returns the symbol of the token, usually a shorter version of the name."
      },
      "totalSupply()": {
        "details": "See {IERC20-totalSupply}."
      },
      "transfer(address,uint256)": {
        "details": "See {IERC20-transfer}. Requirements: - `recipient` cannot be the zero address. - the caller must have a balance of at least `amount`."
      },
      "transferFrom(address,address,uint256)": {
        "details": "See {IERC20-transferFrom}. Emits an {Approval} event indicating the updated allowance. This is not required by the EIP. See the note at the beginning of {ERC20}. Requirements: - `sender` and `recipient` cannot be the zero address. - `sender` must have a balance of at least `amount`. - the caller must have allowance for ``sender``'s tokens of at least `amount`."
      }
    },
    "version": 1
  },
  "userdoc": {
    "kind": "user",
    "methods": {},
    "version": 1
  }
}